:100000000C942A000C9447000C9447000C94470071
:100010000C9447000C9447000C9469180C9447000A
:100020000C9447000C9447000C9436180C94E3177A
:100030000C9447000C940C1E0C943F1E0C94721EE2
:100040000C94B50D0C9447000C9447000C94470099
:100050000C94470011241FBECFE5D8E0DEBFCDBF12
:1000600012E0A0E6B0E0E6EAF3E402C005900D92EB
:10007000A23AB107D9F712E0A2EAB2E001C01D929C
:10008000A93BB107E1F70E94A51E0C94D1210C9465
:100090000000EF92FF920F931F937B018C0120E0F1
:1000A00030E040E05FE40E94F50388238CF0C80153
:1000B000B70120E030E040E05FE40E94C1010E940F
:1000C00055049B01AC01205030404040504806C0D0
:1000D000C801B7010E9455049B01AC01B901CA01D6
:1000E0001F910F91FF90EF900895A0E0B0E0EBE733
:1000F000F0E00C949A21DC012B01FA019C919230E2
:1001000008F439C1EB018881823008F433C194309E
:1001100069F4843009F02FC111969C91119789815F
:10012000981709F428C1A0E7B1E025C1843009F48B
:1001300021C18230A9F4923009F01DC19A01AD01AC
:1001400088E0EA010990AE01E90109929E0181501F
:10015000C1F7E201898111969C918923818308C1AD
:10016000923009F407C112962D903C901397EB0141
:100170008A819B811496AD90BD90CD90DC901797AD
:10018000EC80FD800E811F819101281B390BB90184
:1001900037FF04C066277727621B730B6032710537
:1001A0000CF061C0121613066CF537014801062EDB
:1001B00004C096948794779467940A94D2F721E0C8
:1001C00030E040E050E004C0220F331F441F551FB1
:1001D0006A95D2F721503040404050402E213F21B7
:1001E00040235123211531054105510521F021E01E
:1001F00030E040E050E079018A01E628F72808293C
:1002000019293CC0232BD1F1260E371E350146019A
:10021000062E04C096948794779467940A94D2F734
:1002200021E030E040E050E004C0220F331F441FC3
:10023000551F6A95D2F721503040404050402A2146
:100240003B214C215D21211531054105510521F04E
:1002500021E030E040E050E059016A01A628B728CB
:10026000C828D9280BC0821593052CF01C01AA249C
:10027000BB24650103C0EE24FF24870111969C91E5
:10028000D20111968C91981709F445C0992339F041
:10029000A80197012A193B094C095D0906C0A6016E
:1002A00095012E193F09400B510B57FD08C01182D3
:1002B0003382228224833583468357831DC081E0A5
:1002C00081833382228288279927DC01821B930B4A
:1002D000A40BB50B84839583A683B7830DC0220F2F
:1002E000331F441F551F24833583468357838281E0
:1002F000938101979383828324813581468157813D
:10030000DA01C9010197A109B1098F5F9F4FAF4F72
:10031000BF4328F30BC0918333822282EA0CFB1C7B
:100320000C1D1D1DE482F5820683178383E0808304
:10033000248135814681578157FF1AC0C901AA27F8
:1003400097FDA095BA2F81709070A070B0705695EF
:10035000479537952795822B932BA42BB52B848318
:100360009583A683B7838281938101969383828349
:10037000DF0101C0D201CD01CDB7DEB7E2E10C94BF
:10038000B621A0E2B0E0E7ECF1E00C94A62169838D
:100390007A838B839C832D833E834F835887E9E048
:1003A000EE2EF12CEC0EFD1ECE010196B7010E943F
:1003B00046068E010F5E1F4FCE010596B8010E94C2
:1003C00046068A8991E089278A8BC701B801AE0168
:1003D000475E5F4F0E9475000E947105A096E6E09F
:1003E0000C94C221A0E2B0E0E8EFF1E00C94A62169
:1003F00069837A838B839C832D833E834F835887C5
:10040000F9E0EF2EF12CEC0EFD1ECE010196B701A6
:100410000E9446068E010F5E1F4FCE010596B80161
:100420000E944606C701B801AE01475E5F4F0E94B9
:1004300075000E947105A096E6E00C94C221A0E22E
:10044000B0E0E5E2F2E00C949A2169837A838B8331
:100450009C832D833E834F835887CE010196BE0136
:10046000675F7F4F0E944606CE010596BE016F5E14
:100470007F4F0E9446069985923088F089898230A4
:10048000C8F0943019F4823051F404C0843029F457
:10049000923081F480E791E0C6C0923049F420E0C8
:1004A0009A858A89981321E02A87CE010996BBC0D4
:1004B000823049F420E09A858A89981321E02A8BBA
:1004C000CE014196B0C02D843E844F8458886D88FB
:1004D0007E888F88988CEE24FF248701AA24BB2471
:1004E000650140E050E060E070E0E0E0F0E0C10174
:1004F00081709070892BE9F0E60CF71C081D191D1E
:100500009A01AB012A0D3B1D4C1D5D1D80E090E062
:10051000A0E0B0E0E614F7040805190520F481E036
:1005200090E0A0E0B0E0BA01A901480F591F6A1F8E
:100530007B1FAA0CBB1CCC1CDD1C97FE08C081E0F5
:1005400090E0A0E0B0E0A82AB92ACA2ADB2A3196B6
:10055000E032F10549F0660C771C881C991C569412
:10056000479437942794C3CFFA85EA892B893C892D
:100570008B859C85280F391F2E5F3F4F17C0CA01FE
:1005800081709070892B61F016950795F794E79428
:1005900080E090E0A0E0B0E8E82AF92A0A2B1B2BC3
:1005A00076956795579547952F5F3F4F77FDE7CF36
:1005B0000CC0440F551F661F771F17FD4160EE0CDE
:1005C000FF1C001F111F21503040403090E05907A0
:1005D00090E0690790E4790760F32B8F3C8FDB0193
:1005E000CA018F779070A070B07080349105A1051A
:1005F000B10561F447FD0AC0E114F10401051105DC
:1006000029F0405C5F4F6F4F7F4F40781A8EFE1786
:1006100011F081E08A8F4D8F5E8F6F8F78A383E01A
:10062000898FCE0149960E947105A096E2E10C9453
:10063000B621A8E1B0E0EFE1F3E00C94A2216983D8
:100640007A838B839C832D833E834F835887B9E0C5
:10065000EB2EF12CEC0EFD1ECE010196B7010E948F
:1006600046068E010F5E1F4FCE010596B8010E940F
:1006700046062985223008F47EC03989323010F4CC
:10068000B8017CC08A859A8989278A87243011F02D
:10069000223031F4231709F06EC060E771E06EC0BC
:1006A000343039F41D861E861F86188A1C861B86E8
:1006B00004C0323021F484E08987B7015FC02B8504
:1006C0003C858B899C89281B390B3C872B87ED84C3
:1006D000FE840F851889AD88BE88CF88D88CEA142F
:1006E000FB040C051D0540F4EE0CFF1C001F111F40
:1006F000215030403C872B8720E030E040E050E044
:1007000080E090E0A0E0B0E460E070E0EA14FB0478
:100710000C051D0540F0282B392B4A2B5B2BEA18C2
:10072000FB080C091D09B695A79597958795EE0CC2
:10073000FF1C001F111F6F5F7F4F6F31710531F775
:10074000DA01C9018F779070A070B0708034910584
:10075000A105B10561F427FD0AC0E114F10401050A
:10076000110529F0205C3F4F4F4F5F4F20782D87B8
:100770003E874F87588BBE01675F7F4FCB010E943A
:1007800071056896EAE00C94BE21A8E1B0E0EBECBC
:10079000F3E00C94A62169837A838B839C832D8359
:1007A0003E834F83588789E0E82EF12CEC0EFD1E26
:1007B000CE010196B7010E9446068E010F5E1F4FC3
:1007C000CE010596B8010E9446068985823040F028
:1007D0008989823028F0C701B8010E94BE0601C095
:1007E0008FEF6896E6E00C94C221A8E1B0E0EBEF51
:1007F000F3E00C94A62169837A838B839C832D83F9
:100800003E834F83588789E0E82EF12CEC0EFD1EC5
:10081000CE010196B7010E9446068E010F5E1F4F62
:10082000CE010596B8010E9446068985823040F0C7
:100830008989823028F0C701B8010E94BE0601C034
:100840008FEF6896E6E00C94C221A8E1B0E0EBE2FD
:10085000F4E00C94A62169837A838B839C832D8397
:100860003E834F83588789E0E82EF12CEC0EFD1E65
:10087000CE010196B7010E9446068E010F5E1F4F02
:10088000CE010596B8010E9446068985823040F067
:100890008989823028F0C701B8010E94BE0601C0D4
:1008A00081E06896E6E00C94C221ACE0B0E0EBE5B4
:1008B000F4E00C94AA2169837A838B839C83CE0114
:1008C0000196BE016B5F7F4F0E9446068D8182308C
:1008D00061F1823050F1843021F48E81882351F10E
:1008E0002EC02F81388537FD20C06E812F31310514
:1008F0001CF06623F9F023C08EE190E0821B930B7D
:1009000029853A854B855C8504C056954795379572
:1009100027958A95D2F76623B1F05095409530958A
:1009200021953F4F4F4F5F4F0EC020E030E040E039
:1009300050E009C02FEF3FEF4FEF5FE704C020E02A
:1009400030E040E050E8B901CA012C96E2E00C9496
:10095000C621A8E0B0E0EFEAF4E00C94A2217B010C
:100960008C01611571058105910519F482E0898377
:1009700060C083E089838EE1C82ED12CDC82CB82DB
:10098000ED82FE820F831887C801B7010E942205FD
:10099000FC013197F7FF3BC0222733272E1B3F0B6B
:1009A00057016801022E04C0D694C794B794A79447
:1009B0000A94D2F740E050E060E070E081E090E01F
:1009C000A0E0B0E004C0880F991FAA1FBB1F2A95A2
:1009D000D2F70197A109B1098E219F21A023B1234C
:1009E0000097A105B10521F041E050E060E070E022
:1009F0004A295B296C297D294D835E836F83788723
:100A00008EE190E08E1B9F0B9C838B8312C03097EE
:100A100081F00E2E04C0EE0CFF1C001F111F0A9463
:100A2000D2F7ED82FE820F831887CE1ADF0ADC82AE
:100A3000CB821A82CE0101960E9471052896EAE0C7
:100A40000C94BE21EF92FF920F931F937B018C01B8
:100A500080E0E81680E0F80681E0080780E01807EB
:100A600088F48FEFE816F1040105110531F028F044
:100A700088E090E0A0E0B0E017C080E090E0A0E067
:100A8000B0E012C080E0E81680E0F80680E00807D9
:100A900081E0180728F088E190E0A0E0B0E004C011
:100AA00080E190E0A0E0B0E020E230E040E050E003
:100AB000281B390B4A0B5B0B04C016950795F7945E
:100AC000E7948A95D2F7F701E858FE4F8081281BFA
:100AD000310941095109C9011F910F91FF90EF9010
:100AE0000895DF92EF92FF920F931F93FC01E48031
:100AF000F58006811781D1808081823048F480E0C2
:100B000090E0A0E1B0E0E82AF92A0A2B1B2BA5C04F
:100B1000843009F49FC0823021F4EE24FF24870141
:100B200005C0E114F1040105110519F4E0E0F0E05D
:100B300096C0628173819FEF623879070CF05BC0C9
:100B400022E83FEF261B370B2A3131052CF020E03D
:100B500030E040E050E02AC0B801A701022E04C0F6
:100B600076956795579547950A94D2F781E090E07E
:100B7000A0E0B0E004C0880F991FAA1FBB1F2A95F0
:100B8000D2F70197A109B1098E219F21A023B1239A
:100B90000097A105B10521F081E090E0A0E0B0E070
:100BA0009A01AB01282B392B4A2B5B2BDA01C901A7
:100BB0008F779070A070B07080349105A105B10559
:100BC00039F427FF09C0205C3F4F4F4F5F4F04C0EF
:100BD000215C3F4F4F4F5F4FE0E0F0E02030A0E05E
:100BE0003A07A0E04A07A0E45A0710F0E1E0F0E07D
:100BF00079018A0127C06038710564F5FB01E1586D
:100C0000FF4FD801C7018F779070A070B07080340B
:100C10009105A105B10539F4E7FE0DC080E490E02F
:100C2000A0E0B0E004C08FE390E0A0E0B0E0E80E08
:100C3000F91E0A1F1B1F17FF05C016950795F7948D
:100C4000E794319687E016950795F794E7948A958F
:100C5000D1F705C0EE24FF248701EFEFF0E06E2FFF
:100C6000679566276795902F9F77D794DD24D79453
:100C70008E2F8695492F462B582F5D29B701CA0123
:100C80001F910F91FF90EF90DF900895FC01DB0121
:100C9000408151812281622F6F7770E0221F2227CD
:100CA000221F9381892F880F822B282F30E0991FD4
:100CB0009927991F11969C93119721153105A9F534
:100CC000411551056105710511F482E037C082E8D4
:100CD0009FEF13969C938E9312979A01AB0167E056
:100CE000220F331F441F551F6A95D1F783E08C9361
:100CF0000DC0220F331F441F551F12968D919C91DA
:100D00001397019713969C938E931297203080E04F
:100D1000380780E0480780E4580758F314962D936D
:100D20003D934D935C93179708952F3F310579F4C8
:100D3000411551056105710519F484E08C930895FE
:100D400064FF03C081E08C9312C01C9210C02F5727
:100D5000304013963C932E93129783E08C9387E058
:100D6000440F551F661F771F8A95D1F7706414963C
:100D70004D935D936D937C93179708951F93DC01BA
:100D8000FB019C91923008F447C08081823008F4C6
:100D900043C0943051F411961C91843099F58181AF
:100DA000682F70E0611B71093FC0843021F09230E0
:100DB00031F48230B9F18181882389F12DC01196F7
:100DC0001C9111978230F1F081811817D9F4129695
:100DD0002D913C911397828193818217930794F010
:100DE00028173907BCF014968D919D910D90BC91F8
:100DF000A02D2481358146815781281739074A075C
:100E00005B0718F4112341F00AC082179307A40767
:100E1000B50740F4112319F061E070E005C06FEFF1
:100E20007FEF02C060E070E0CB011F910895DF9377
:100E3000CF93CDB7DEB765970FB6F894DEBF0FBE80
:100E4000CDBF198A82E060EF0E94580E82E06FE009
:100E50000E94A10ECE010F9662E00E94EA0E8F85DD
:100E600080958F708F878F858823A1F382E06FE054
:100E70000E94580E82E060EF0E94A10ECE014096C3
:100E800062E00E94EA0E8889882F90E08095909514
:100E9000807F907095958795959587959595879581
:100EA00095958795888B05C0CE01419662E00E949A
:100EB000EA0E8989803FC1F780E090E0A0E2B1E4CA
:100EC0008B879C87AD87BE876B857C858D859E854E
:100ED00020E030E04AEF54E40E941F02DC01CB0125
:100EE0008F839887A987BA876F81788589859A8546
:100EF00020E030E040E85FE30E94250488232CF4E2
:100F000081E090E09E838D833FC06F8178858985E5
:100F10009A8520E03FEF4FE757E40E94C50318167B
:100F20004CF56B857C858D859E8520E030E040E228
:100F300051E40E941F02DC01CB01BC01CD010E94E3
:100F40004900DC01CB019E838D830FC088EC90E0CB
:100F50009C838B838B819C810197F1F79C838B838E
:100F60008D819E8101979E838D838D819E810097C7
:100F700069F714C06F81788589859A850E94490038
:100F8000DC01CB019E838D838D819E819A83898331
:100F900089819A810197F1F79A8389838F85282F18
:100FA00030E03D8B2C8B8C899D8982309105C1F07E
:100FB0002C893D892330310534F48C899D89813019
:100FC000910561F015C02C893D892430310559F017
:100FD0008C899D898830910549F00AC01F8608C018
:100FE00081E08F8705C082E08F8702C083E08F8712
:100FF0008889282F30E03B8B2A8B8A899B89823015
:101000009105C1F02A893B892330310534F48A895E
:101010009B898130910561F015C02A893B89243074
:10102000310559F08A899B898830910549F00AC0B9
:10103000188A08C081E0888B05C082E0888B02C0D6
:1010400083E0888B8F85482F50E08889282F30E0F7
:10105000CA01880F991F880F991F820F931FFC01E7
:10106000E858FD4F808165960FB6F894DEBF0FBE3D
:10107000CDBFCF91DF910895DF93CF93CDB7DEB78A
:1010800081E06FEF0E94580E84E060E041E00E9432
:10109000440F84E062E041E00E94440F84E063E09A
:1010A00041E00E94440F8CE30E94960881E090E0AA
:1010B0000E949C188FE00E94960881E090E00E94B8
:1010C0009C1881E00E94960882E090E00E949C18A3
:1010D000CF91DF910895DF93CF930F92CDB7DEB715
:1010E000898384E060E041E00E943B1184E062E09B
:1010F00040E00E943B1181E069810E94A10E84E0E2
:1011000063E040E00E943B1184E063E041E00E9424
:101110003B1182E090E00E949C1884E063E040E094
:101120000E943B110F90CF91DF910895DF93CF93F1
:101130000F92CDB7DEB7898384E060E040E00E9483
:101140003B1184E062E040E00E943B1181E0698154
:101150000E94A10E84E063E040E00E943B1184E025
:1011600063E041E00E943B1182E090E00E949C1805
:1011700084E063E040E00E943B110F90CF91DF914B
:101180000895DF93CF9300D00F92CDB7DEB79B8346
:101190008A8319828A819B81009709F115C0898110
:1011A000282F30E08A819B81FC01E20FF31F8081B0
:1011B0000E946B0889818F5F89838981803121F446
:1011C00081E060E00E947E098981282F30E08A81D9
:1011D0009B81FC01E20FF31F8081882301F70F90B0
:1011E0000F900F90CF91DF9108950F931F93DF938E
:1011F000CF93CDB7DEB72F970FB6F894DEBF0FBEF3
:10120000CDBF6C877D878E879F8719828C859D8552
:10121000AE85BF85BB239CF48DE20E946B088C8554
:101220009D85AE85BF85B095A095909581959F4F82
:10123000AF4FBF4F8C879D87AE87BF8739C08C85E6
:101240009D85AE85BF850097A105B10589F580E331
:101250000E946B082DC08981082F10E08C859D8528
:10126000AE85BF852AE030E040E050E0BC01CD0112
:101270000E947F21DC01CB01282FCE010296FC01C8
:10128000E00FF11F20838C859D85AE85BF852AE008
:1012900030E040E050E0BC01CD010E947F21DA0146
:1012A000C9018C879D87AE87BF8789818F5F8983BE
:1012B0008C859D85AE85BF850097A105B10559F642
:1012C0000FC08981815089838981282F30E0CE0128
:1012D0000296FC01E20FF31F8081805D0E946B0883
:1012E0008981882371F72F960FB6F894DEBF0FBE61
:1012F000CDBFCF91DF911F910F910895DF93CF93D1
:1013000000D00F92CDB7DEB78A836B838A818823A2
:1013100019F48B81898306C08A81813019F48B810D
:10132000805C8983898180580E9496080F900F9075
:101330000F90CF91DF910895DF93CF9300D000D02D
:101340000F92CDB7DEB79C838B836D838D81882F01
:1013500090E0880F991F880F991F880F991F898324
:101360008981805C0E9496081A820EC08A81282F8B
:1013700030E08B819C81FC01E20FF31F80810E9491
:101380006B088A818F5F8A838A81883078F380E84E
:101390000E9496080F900F900F900F900F90CF9192
:1013A000DF910895DF93CF9300D0CDB7DEB7898367
:1013B0006A838981882F90E0880F991F880F991F71
:1013C000982F9295907F8A81890F80580E94960865
:1013D0000F900F90CF91DF910895DF93CF930F92ED
:1013E000CDB7DEB7198260E573EC80E090E043E0B2
:1013F0000E946C1989830E94321A89810F90CF91C3
:10140000DF910895DF93CF93CDB7DEB763970FB623
:10141000F894DEBF0FBECDBF9A8B898B6B8B898909
:101420009A89892F99278F878F858065888B0E945D
:10143000871A0E940A1B0E94FE1A0E94F31A883023
:1014400049F58889882F90E0880F991F0E94191B01
:101450000E940A1B0E94FE1A0E94F31A8831D1F4DE
:1014600089890E94191B0E940A1B0E94FE1A0E9471
:10147000F31A883279F48B890E94191B0E940A1B87
:101480000E94FE1A0E94F31A883221F40E940A1B5D
:101490000E94951A80E090E0A0E2B1E48B879C87DF
:1014A000AD87BE876B857C858D859E8520E030E08D
:1014B0004AEF54E40E941F02DC01CB018F8398871E
:1014C000A987BA876F81788589859A8520E030E081
:1014D00040E85FE30E94250488232CF481E090E03B
:1014E0009E838D833FC06F81788589859A8520E0B2
:1014F0003FEF4FE757E40E94C50318164CF56B8584
:101500007C858D859E8520E030E040E251E40E949C
:101510001F02DC01CB01BC01CD010E944900DC01AE
:10152000CB019E838D830FC088EC90E09C838B83DE
:101530008B819C810197F1F79C838B838D819E81A8
:1015400001979E838D838D819E81009769F714C0DA
:101550006F81788589859A850E944900DC01CB01DD
:101560009E838D838D819E819A83898389819A81CF
:101570000197F1F79A83898363960FB6F894DEBFDB
:101580000FBECDBFCF91DF910895DF93CF93CDB73D
:10159000DEB763970FB6F894DEBF0FBECDBF9B8B4F
:1015A0008A8B8A899B89892F99278F878F85806568
:1015B000888B0E94871A0E940A1B0E94FE1A0E94B2
:1015C000F31A883009F043C08889882F90E0880F8B
:1015D000991F0E94191B0E940A1B0E94FE1A0E945A
:1015E000F31A8831A1F58A890E94191B0E940A1BEF
:1015F0000E94FE1A0E94F31A883249F50E94871A47
:101600000E940A1B0E94FE1A0E94F31A8031F9F40C
:101610008889882F90E0880F991F81600E94191B8C
:101620000E940A1B0E94FE1A0E94F31A803479F469
:101630000E940A1B0E94FE1A0E94F31A883539F490
:101640000E94271B898B0E940A1B0E94951A80E02A
:1016500090E0A0E2B1E48B879C87AD87BE876B8565
:101660007C858D859E8520E030E04AEF54E40E9421
:101670001F02DC01CB018F839887A987BA876F810E
:10168000788589859A8520E030E040E85FE30E9414
:10169000250488232CF481E090E09E838D833FC055
:1016A0006F81788589859A8520E03FEF4FE757E481
:1016B0000E94C50318164CF56B857C858D859E852B
:1016C00020E030E040E251E40E941F02DC01CB0147
:1016D000BC01CD010E944900DC01CB019E838D83BA
:1016E0000FC088EC90E09C838B838B819C81019759
:1016F000F1F79C838B838D819E8101979E838D83DF
:101700008D819E81009769F714C06F8178858985E6
:101710009A850E944900DC01CB019E838D838D81D7
:101720009E819A83898389819A810197F1F79A83AF
:101730008983898963960FB6F894DEBF0FBECDBF4B
:10174000CF91DF910895DF93CF93CDB7DEB7629746
:101750000FB6F894DEBF0FBECDBF8FEF898B188A0E
:10176000C6C08889882F90E0FC01E456FD4F908127
:1017700082E0692F40E00E943B111F86A5C08F8543
:10178000882F90E0FC01E856FD4F908182E0692FA0
:101790000E948813882309F094C08F85482F50E059
:1017A0008889282F30E0CA01880F991F880F991F58
:1017B000820F931FFC01E857FD4F8081898B8F8535
:1017C000882F90E0FC01E856FD4F908182E0692F60
:1017D0000E948813882399F380E090E0A0EAB0E4A7
:1017E0008B879C87AD87BE876B857C858D859E8525
:1017F00020E030E04AEF54E40E941F02DC01CB01FC
:101800008F839887A987BA876F81788589859A851C
:1018100020E030E040E85FE30E94250488232CF4B8
:1018200081E090E09E838D833FC06F8178858985BC
:101830009A8520E03FEF4FE757E40E94C503181652
:101840004CF56B857C858D859E8520E030E040E2FF
:1018500051E40E941F02DC01CB01BC01CD010E94BA
:101860004900DC01CB019E838D830FC088EC90E0A2
:101870009C838B838B819C810197F1F79C838B8365
:101880008D819E8101979E838D838D819E8100979E
:1018900069F714C06F81788589859A850E9449000F
:1018A000DC01CB019E838D838D819E819A83898308
:1018B00089819A810197F1F79A83898389898A8B33
:1018C0001CC08F858F5F8F878F85843008F457CF3A
:1018D0008889882F90E0FC01E456FD4F908182E0DA
:1018E000692F41E00E943B1188898F5F888B88892E
:1018F000843008F436CF89898A8B8A8962960FB63C
:10190000F894DEBF0FBECDBFCF91DF910895DF9376
:10191000CF9300D00F92CDB7DEB78A836B83198245
:101920008B81883068F58A81823018F08A81833013
:1019300039F5A7E2B0E0E7E2F0E08081282F2F73CD
:101940008A81882F90E00024969587950794969534
:1019500087950794982F802D822B8C93A7E2B0E077
:10196000E7E2F0E0808180628C93A6E2B0E0E6E2FC
:10197000F0E08081982F987F8B81892B8C9302C017
:1019800081E0898389810F900F900F90CF91DF9133
:101990000895DF93CF9300D0CDB7DEB78A83198245
:1019A0008A81883090F4A7E2B0E0E7E2F0E080813D
:1019B000982F907E8A81892B8C93A6E2B0E0E6E294
:1019C000F0E0808180648C9302C081E0898389810A
:1019D0000F900F90CF91DF910895DF93CF93CDB704
:1019E000DEB7A6E2B0E0E6E2F0E0808180688C93AA
:1019F000CF91DF910895DF93CF93CDB7DEB7A6E205
:101A0000B0E0E6E2F0E080818F778C93CF91DF91B8
:101A10000895DF93CF93CDB7DEB7E6E2F0E08081A3
:101A200082958F70882F90E0817090700097A9F355
:101A3000CF91DF910895DF93CF93CDB7DEB7A6E2C4
:101A4000B0E0E6E2F0E0808180618C93CF91DF919D
:101A50000895DF93CF93CDB7DEB7A6E2B0E0E6E21C
:101A6000F0E0808188608C93CF91DF910895DF93BF
:101A7000CF93CDB7DEB7A6E2B0E0E6E2F0E080813A
:101A8000877F8C93CF91DF910895DF93CF9300D020
:101A900000D0CDB7DEB79B838A836C8319828A819D
:101AA0009B81009791F08C810E94C90C89830E94D0
:101AB000090D0E941B0DE5E2F0E08081882F90E087
:101AC000EA81FB819183808302C082E089838981DE
:101AD0000F900F900F900F90CF91DF910895DF93AB
:101AE000CF9300D0CDB7DEB78A8319828091A00250
:101AF000823051F481E08093A0020E94290D8A81F6
:101B00000E94C90C898302C081E0898389810F907A
:101B10000F90CF91DF910895DF93CF93CDB7DEB7CC
:101B2000E5E2F0E08081882F90E0CF91DF91089589
:101B3000DF93CF9300D00F92CDB7DEB79B838A831C
:101B400019828A819B81009739F08A819B819093C9
:101B5000A3028093A20202C082E0898389810F9050
:101B60000F900F90CF91DF9108951F920F920FB6B3
:101B70000F9211242F933F934F935F936F937F9313
:101B80008F939F93AF93BF93EF93FF93DF93CF9385
:101B9000CDB7DEB78091A2029091A302009741F0E9
:101BA00082E08093A002E091A202F091A302099545
:101BB000CF91DF91FF91EF91BF91AF919F918F9165
:101BC0007F916F915F914F913F912F910F900FBE39
:101BD0000F901F901895DF93CF93CDB7DEB7A7E294
:101BE000B0E0E7E2F0E0808180648C93A7E2B0E0AF
:101BF000E7E2F0E080818F778C93A6E2B0E0E6E246
:101C0000F0E0808181608C93A6E2B0E0E6E2F0E053
:101C100080818D7F8C93A6E2B0E0E6E2F0E08081E7
:101C20008B7F8C93A7E2B0E0E7E2F0E080818062F6
:101C30008C93CF91DF910895DF93CF930F92CDB71F
:101C4000DEB78983A6E2B0E0E6E2F0E0808180685A
:101C50008C93A7E2B0E0E7E2F0E08081807E8C9395
:101C6000A7E2B0E0E7E2F0E090818981892B8C93D4
:101C7000A6E2B0E0E6E2F0E0808180648C93E6E2E8
:101C8000F0E0808182958F70882F90E08170907055
:101C90000097A9F3A6E2B0E0E6E2F0E0808180617F
:101CA0008C93E5E2F0E080810F90CF91DF91089571
:101CB000DF93CF9300D000D00F92CDB7DEB78A83E9
:101CC0006B8319828A81282F30E03D832C838C819D
:101CD0009D8182309105D9F02C813D8123303105E1
:101CE00034F48C819D818130910561F01FC02C817D
:101CF0003D812330310581F08C819D8184309105B7
:101D000081F014C0E9E3F0E08B81818311C0E6E348
:101D1000F0E08B8181830CC0E3E3F0E08B81818371
:101D200007C0E0E3F0E08B81818302C081E089831A
:101D300089810F900F900F900F900F90CF91DF91AE
:101D40000895DF93CF9300D000D00F92CDB7DEB7C8
:101D50008A836B8319828A81282F30E03D832C830C
:101D60008C819D8182309105D9F02C813D81233079
:101D7000310534F48C819D818130910561F01FC063
:101D80002C813D812330310581F08C819D8184300F
:101D9000910581F014C0E9E3F0E08B81828311C0EA
:101DA000E6E3F0E08B8182830CC0E3E3F0E08B811B
:101DB000828307C0E0E3F0E08B81828302C081E090
:101DC000898389810F900F900F900F900F90CF9182
:101DD000DF910895DF93CF9300D000D000D0CDB72E
:101DE000DEB79B838A836C8319828A819B810097EB
:101DF00019F482E089833EC08C81282F30E03E8335
:101E00002D838D819E8182309105E9F02D813E8167
:101E10002330310534F48D819E818130910561F04C
:101E200027C02D813E8123303105A1F08D819E8117
:101E300084309105B1F01CC0E9E3F0E08081EA81D3
:101E4000FB81808317C0E6E3F0E08081EA81FB81BB
:101E5000808310C0E3E3F0E08081EA81FB8180832E
:101E600009C0E0E3F0E08081EA81FB81808302C069
:101E700081E08983898126960FB6F894DEBF0FBE74
:101E8000CDBFCF91DF910895DF93CF93CDB7DEB76C
:101E90002A970FB6F894DEBF0FBECDBF8A836B833F
:101EA0004C8319828B81883008F0D9C18C818130B4
:101EB00009F07CC08A81282F30E03A8729878985FC
:101EC0009A858230910569F129853A85233031055B
:101ED00034F489859A858130910569F064C029853B
:101EE0003A852330310599F189859A8584309105A9
:101EF00009F443C058C0A9E3B0E0E9E3F0E0818110
:101F0000482F8B81282F30E081E090E0022E02C024
:101F1000880F991F0A94E2F7842B11968C931197DE
:101F2000A0C1A6E3B0E0E6E3F0E08181482F8B8119
:101F3000282F30E081E090E0022E02C0880F991F28
:101F40000A94E2F7842B11968C9311978AC1A3E32C
:101F5000B0E0E3E3F0E08181482F8B81282F30E06F
:101F600081E090E0022E02C0880F991F0A94E2F7E8
:101F7000842B11968C93119774C1A0E3B0E0E0E339
:101F8000F0E08181482F8B81282F30E081E090E0C4
:101F9000022E02C0880F991F0A94E2F7842B119633
:101FA0008C9311975EC181E089835BC18C81823003
:101FB00009F080C08A81282F30E038872F838F81F5
:101FC00098858230910571F12F8138852330310554
:101FD00034F48F8198858130910569F068C02F8134
:101FE000388523303105A9F18F819885843091059A
:101FF00009F446C05CC0A9E3B0E0E9E3F0E0818108
:10200000482F8B81282F30E081E090E0022E02C023
:10201000880F991F0A94E2F78095842311968C9378
:1020200011971FC1A6E3B0E0E6E3F0E08181482FFD
:102030008B81282F30E081E090E0022E02C0880FD3
:10204000991F0A94E2F78095842311968C93119737
:1020500008C1A3E3B0E0E3E3F0E08181482F8B8186
:10206000282F30E081E090E0022E02C0880F991FF7
:102070000A94E2F78095842311968C931197F1C00E
:10208000A0E3B0E0E0E3F0E08181482F8B81282FCE
:1020900030E081E090E0022E02C0880F991F0A9480
:1020A000E2F78095842311968C931197DAC081E032
:1020B0008983D7C08C81833009F0CEC08A81282FD4
:1020C00030E03E832D838D819E818230910509F41D
:1020D00042C02D813E812330310534F48D819E81B3
:1020E0008130910571F0B5C02D813E8123303105DD
:1020F00009F45BC08D819E818430910509F47FC015
:10210000A8C0A9E3B0E0E9E3F0E08181482F8B812A
:10211000282F30E081E090E002C0880F991F2A95B7
:10212000E2F78095842311968C93A9E3B0E0E9E36C
:10213000F0E08281482F8B81282F30E081E090E011
:10214000022E02C0880F991F0A94E2F7842B129680
:102150008C93129786C0A6E3B0E0E6E3F0E08181BD
:10216000482F8B81282F30E081E090E002C0880F5B
:10217000991F2A95E2F78095842311968C93A6E304
:10218000B0E0E6E3F0E08281482F8B81282F30E039
:1021900081E090E0022E02C0880F991F0A94E2F7B6
:1021A000842B12968C9312975CC0A3E3B0E0E3E318
:1021B000F0E08181482F8B81282F30E081E090E092
:1021C00002C0880F991F2A95E2F780958423119603
:1021D0008C93A3E3B0E0E3E3F0E08281482F8B81AE
:1021E000282F30E081E090E0022E02C0880F991F76
:1021F0000A94E2F7842B12968C93129732C0A0E3D4
:10220000B0E0E0E3F0E08181482F8B81282F30E0BF
:1022100081E090E002C0880F991F2A95E2F780952F
:10222000842311968C93A0E3B0E0E0E3F0E0828198
:10223000482F8B81282F30E081E090E0022E02C0F1
:10224000880F991F0A94E2F7842B12968C931297A9
:1022500008C081E0898305C081E0898302C081E0F4
:10226000898389812A960FB6F894DEBF0FBECDBF51
:10227000CF91DF910895DF93CF93CDB7DEB7289745
:102280000FB6F894DEBF0FBECDBF8A836B834C833D
:1022900019828B81883008F007C18C81813009F068
:1022A0007CC08A81282F30E038872F838F819885E2
:1022B0008230910569F12F8138852330310534F45E
:1022C0008F8198858130910569F064C02F813885B0
:1022D0002330310599F18F8198858430910509F477
:1022E00043C058C0A9E3B0E0E9E3F0E08281482FA1
:1022F0008B81282F30E081E090E0022E02C0880F11
:10230000991F0A94E2F7842B12968C931297CEC0F1
:10231000A6E3B0E0E6E3F0E08281482F8B81282F2E
:1023200030E081E090E0022E02C0880F991F0A94ED
:10233000E2F7842B12968C931297B8C0A3E3B0E017
:10234000E3E3F0E08281482F8B81282F30E081E0A9
:1023500090E0022E02C0880F991F0A94E2F7842BA6
:1023600012968C931297A2C0A0E3B0E0E0E3F0E0F5
:102370008281482F8B81282F30E081E090E0022E6F
:1023800002C0880F991F0A94E2F7842B12968C934F
:1023900012978CC081E0898389C08C81882309F0E1
:1023A00080C08A81282F30E03E832D838D819E81DD
:1023B0008230910571F12D813E812330310534F455
:1023C0008D819E818130910569F068C02D813E81AB
:1023D00023303105A9F18D819E818430910509F466
:1023E00046C05CC0A9E3B0E0E9E3F0E08281482F99
:1023F0008B81282F30E081E090E0022E02C0880F10
:10240000991F0A94E2F78095842312968C93129771
:102410004DC0A6E3B0E0E6E3F0E08281482F8B8177
:10242000282F30E081E090E0022E02C0880F991F33
:102430000A94E2F78095842312968C93129736C003
:10244000A3E3B0E0E3E3F0E08281482F8B81282F03
:1024500030E081E090E0022E02C0880F991F0A94BC
:10246000E2F78095842312968C9312971FC0A0E305
:10247000B0E0E0E3F0E08281482F8B81282F30E04C
:1024800081E090E0022E02C0880F991F0A94E2F7C3
:102490008095842312968C93129708C081E08983DB
:1024A00005C081E0898302C081E089838981289603
:1024B0000FB6F894DEBF0FBECDBFCF91DF91089568
:1024C000DF93CF9300D000D00F92CDB7DEB78A83D1
:1024D0006B8319828B81883008F07CC08A81282F19
:1024E00030E03D832C838C819D818230910569F1A0
:1024F0002C813D812330310534F48C819D818130E4
:10250000910569F064C02C813D812330310599F13A
:102510008C819D818430910509F443C058C0A9E3A2
:10252000B0E0E9E3F0E08281482F8B81282F30E092
:1025300081E090E0022E02C0880F991F0A94E2F712
:10254000842712968C93129747C0A6E3B0E0E6E387
:10255000F0E08281482F8B81282F30E081E090E0ED
:10256000022E02C0880F991F0A94E2F78427129660
:102570008C93129731C0A3E3B0E0E3E3F0E08281F3
:10258000482F8B81282F30E081E090E0022E02C09E
:10259000880F991F0A94E2F7842712968C9312975A
:1025A0001BC0A0E3B0E0E0E3F0E08281482F8B8124
:1025B000282F30E081E090E0022E02C0880F991FA2
:1025C0000A94E2F7842712968C93129705C081E053
:1025D000898302C081E0898389810F900F900F90D9
:1025E0000F900F90CF91DF910895DF93CF93CDB7E8
:1025F000DEB727970FB6F894DEBF0FBECDBF9B8323
:102600008A836C834D8319828A819B81009719F498
:1026100082E0898373C08C81282F30E03F832E8332
:102620004E815F814230510559F18E819F81833007
:10263000910534F42E813F812130310569F05CC071
:102640004E815F814330510579F18E819F818430C5
:10265000910509F43DC050C0E9E3F0E08081282FE6
:1026600030E08D81882F90E0A90102C055954795F3
:102670008A95E2F7CA018170EA81FB8180833EC0BE
:10268000E6E3F0E08081282F30E08D81882F90E014
:10269000A90102C0559547958A95E2F7CA01817054
:1026A000EA81FB8180832AC0E3E3F0E08081282F68
:1026B00030E08D81882F90E0A90102C055954795A3
:1026C0008A95E2F7CA018170EA81FB81808316C096
:1026D000E0E3F0E08081282F30E08D81882F90E0CA
:1026E000A90102C0559547958A95E2F7CA01817004
:1026F000EA81FB81808302C081E0898389812796FA
:102700000FB6F894DEBF0FBECDBFCF91DF91089515
:10271000DF93CF9300D000D00F92CDB7DEB78A837E
:102720006B838B81883008F067C08A81282F30E066
:102730003D832C834C815D814230510541F18C8178
:102740009D818330910534F42C813D812130310508
:1027500061F052C04C815D814330510551F18C8153
:102760009D8184309105B9F147C0E9E3F0E08081B3
:10277000282F30E08B81882F90E0A90102C0559569
:1027800047958A95E2F7CA018170898335C0E6E3EF
:10279000F0E08081282F30E08B81882F90E0A90124
:1027A00002C0559547958A95E2F7CA0181708983E1
:1027B00023C0E3E3F0E08081282F30E08B81882F75
:1027C00090E0A90102C0559547958A95E2F7CA01A4
:1027D0008170898311C0E0E3F0E08081282F30E030
:1027E0008B81882F90E0A90102C0559547958A9565
:1027F000E2F7CA018170898389810F900F900F9051
:102800000F900F90CF91DF910895DF93CF93CDB7C5
:10281000DEB7AFE5B0E0EFE5F0E0808180688C9353
:10282000CF91DF910895DF93CF93CDB7DEB7AFE5BA
:10283000B0E0EFE5F0E080818F778C93CF91DF916E
:102840000895DF93CF93CDB7DEB72B970FB6F894EB
:10285000DEBF0FBECDBF8A836B834C832D8319826D
:102860008A81833008F00AC18B81883008F006C164
:102870008C81803108F002C18D81843008F0FEC067
:102880008A81282F30E03B872A878A859B85813083
:10289000910509F47EC02A853B852230310509F473
:1028A000EFC08A859B85009709F0E5C08C81282FB1
:1028B00030E039872887888599858130910521F115
:1028C00028853985223031052CF488859985009733
:1028D00061F047C0288539852230310521F188858E
:1028E00099858330910571F13CC0A3E5B0E0E3E543
:1028F000F0E080818F7B8C93A3E5B0E0E3E5F0E02E
:102900008081877F8C932FC0A3E5B0E0E3E5F0E002
:1029100080818F7B8C93A3E5B0E0E3E5F0E08081DC
:1029200088608C9320C0A3E5B0E0E3E5F0E080810F
:1029300080648C93A3E5B0E0E3E5F0E080818860FB
:102940008C9311C0A3E5B0E0E3E5F0E08081806402
:102950008C93A3E5B0E0E3E5F0E08081877F8C9382
:1029600002C081E08983A3E5B0E0E3E5F0E0808187
:10297000282F2F7C8D81882F90E082959295907FD3
:102980009827807F9827822B8C938B818093B80225
:1029900077C08C81282F30E03F832E838E819F81EA
:1029A000009731F02E813F812E303105F1F03AC091
:1029B000AFE4B0E0EFE4F0E080818E7F8C93AFE491
:1029C000B0E0EFE4F0E080818D7F8C93AEE4B0E086
:1029D000EEE4F0E08081877F8C93AEE4B0E0EEE43B
:1029E000F0E080818F7E8C931FC0AFE4B0E0EFE415
:1029F000F0E080818E7F8C93AFE4B0E0EFE4F0E014
:102A0000808182608C93AEE4B0E0EEE4F0E08081FF
:102A100088608C93AEE4B0E0EEE4F0E08081806109
:102A20008C9302C081E089838D81882379F4AFE49F
:102A3000B0E0EFE4F0E080818F778C93AFE4B0E01A
:102A4000EFE4F0E080818F7B8C9311C08D81823028
:102A500071F4AFE4B0E0EFE4F0E0808180688C9343
:102A6000AFE4B0E0EFE4F0E080818F7B8C938B816A
:102A70008093B70205C081E0898302C081E0898329
:102A800089812B960FB6F894DEBF0FBECDBFCF91D4
:102A9000DF910895DF93CF93CDB7DEB7A3E5B0E024
:102AA000E3E5F0E0808180688C93CF91DF91089519
:102AB000DF93CF9300D0CDB7DEB78A8319828A81A6
:102AC0008830A0F4A9E5B0E0E9E5F0E08081482F86
:102AD0008A81282F30E081E090E0022E02C0880F2A
:102AE000991F0A94E2F7842B8C9302C081E08983BA
:102AF00089810F900F90CF91DF910895DF93CF934D
:102B000000D0CDB7DEB78A8319828A818830A8F4D5
:102B1000A9E5B0E0E9E5F0E08081482F8A81282F1F
:102B200030E081E090E0022E02C0880F991F0A94E5
:102B3000E2F7809584238C9302C081E089838981A8
:102B40000F900F90CF91DF910895DF93CF9300D036
:102B500000D000D0CDB7DEB78A837C836B83198227
:102B60008B819C81009759F18A81282F30E03E8328
:102B70002D838D819E818130910581F02D813E8153
:102B80002530310591F08D819E810097A9F48B81CC
:102B90009C819093A5028093A40213C08B819C8199
:102BA0009093A7028093A6020CC08B819C81909386
:102BB000A9028093A80205C081E0898302C082E057
:102BC0008983898126960FB6F894DEBF0FBECDBFEC
:102BD000CF91DF910895DF93CF9300D000D0CDB790
:102BE000DEB78A8319828A81282F30E03C832B83C9
:102BF0008B819C8181309105A9F02B813C81223011
:102C00003105F1F08B819C810097C1F4A3E5B0E020
:102C1000E3E5F0E08081982F987F8091B802892BBE
:102C20008C930EC0AEE4B0E0EEE4F0E08081982F2B
:102C3000987F8091B702892B8C9302C081E08983B1
:102C400089810F900F900F900F90CF91DF91089591
:102C5000DF93CF9300D000D0CDB7DEB78A8319823F
:102C60008A81282F30E03C832B838B819C818130AB
:102C7000910589F02B813C8122303105B1F08B81A7
:102C80009C81009781F4A3E5B0E0E3E5F0E080816A
:102C9000887F8C930AC0AEE4B0E0EEE4F0E080817F
:102CA000887F8C9302C081E0898389810F900F9087
:102CB0000F900F90CF91DF910895DF93CF9300D0C5
:102CC00000D000D0CDB7DEB78A837C836B831982B6
:102CD0008A81282F30E03E832D838D819E81813033
:102CE000910571F02D813E812230310591F08D8169
:102CF0009E81009761F4ECE5F0E08B81808309C050
:102D0000EAE4F0E08B819C819183808302C081E0C2
:102D10008983898126960FB6F894DEBF0FBECDBF9A
:102D2000CF91DF910895DF93CF9300D000D000D0F2
:102D3000CDB7DEB78A837C836B8319828A81282F83
:102D400030E03E832D838D819E818130910571F02D
:102D50002D813E812230310591F08D819E81009739
:102D600061F4E2E5F0E08B81808309C0ECE4F0E0FF
:102D70008B819C819183808302C081E089838981DA
:102D800026960FB6F894DEBF0FBECDBFCF91DF9170
:102D90000895EF92FF920F931F93DF93CF93CDB7D8
:102DA000DEB764970FB6F894DEBF0FBECDBF8C8739
:102DB0004D875E876F87788B1B868C85282F30E048
:102DC0003C8B2B8B8B899C898130910509F4EDC05C
:102DD0002B893C892230310509F4E7C08B899C8915
:102DE000009709F0E0C08091B802282F30E03A8BBC
:102DF000298B89899A898330910529F129893A8912
:102E0000243031055CF489899A898130910589F0F3
:102E100029893A892230310589F023C089899A8924
:102E200084309105A9F029893A8925303105A9F026
:102E300018C081E090E09A83898313C088E090E015
:102E40009A8389830EC080E490E09A83898309C0C5
:102E500080E091E09A83898304C080E094E09A83C3
:102E6000898389819A81CC01A0E0B0E0BC01CD01C9
:102E70000E94A904DC01CB01BC01CD0120E034E2B9
:102E800044EF5AE40E941903DC01CB018F83988739
:102E9000A987BA876F81788589859A8520E030E097
:102EA00040E853E40E941F02DC01CB018B839C832A
:102EB000AD83BE836D857E858F8598890E94A90428
:102EC000DC01CB01BC01CD0120E030E04AE754E455
:102ED0000E941903DC01CB01BC01CD012B813C8197
:102EE0004D815E810E941903DC01CB01BC01CD0143
:102EF0000E944900DC01CB019093AD028093AC02AB
:102F00006D857E858F8598890E94A904DC01CB019F
:102F1000BC01CD0120E030E04AE754E40E941903EF
:102F2000DC01CB01BC01CD012B813C814D815E8157
:102F30000E941903DC01CB017C018D018091AC0260
:102F40009091AD02CC01A0E0B0E0BC01CD010E94A7
:102F5000A9049B01AC01C801B7010E94C101DC01B9
:102F6000CB019C01AD0160E070E080E89FE30E942E
:102F7000C101DC01CB01BC01CD0120E030E040E823
:102F800053E40E941F02DC01CB01BC01CD010E9471
:102F90004900DC01CB018093AE02E2E5F0E08091D4
:102FA000AE02808302C081E08B878B8564960FB66A
:102FB000F894DEBF0FBECDBFCF91DF911F910F916F
:102FC000FF90EF9008951F920F920FB60F92112469
:102FD0002F933F934F935F936F937F938F939F9321
:102FE000AF93BF93EF93FF93DF93CF93CDB7DEB74C
:102FF0008091A4029091A502009729F18091AA02E4
:103000009091AB0201969093AB028093AA028091BB
:10301000AC029091AD029C012F5F3F4F8091AA02BC
:103020009091AB022817390771F41092AB021092FD
:10303000AA02E2E5F0E08091AE028083E091A40272
:10304000F091A5020995CF91DF91FF91EF91BF918A
:10305000AF919F918F917F916F915F914F913F9130
:103060002F910F900FBE0F901F9018951F920F92E7
:103070000FB60F9211242F933F934F935F936F934B
:103080007F938F939F93AF93BF93EF93FF93DF93C0
:10309000CF93CDB7DEB78091A6029091A70200979B
:1030A00029F0E091A602F091A7020995CF91DF9156
:1030B000FF91EF91BF91AF919F918F917F916F9110
:1030C0005F914F913F912F910F900FBE0F901F90E6
:1030D00018951F920F920FB60F9211242F933F93C2
:1030E0004F935F936F937F938F939F93AF93BF9310
:1030F000EF93FF93DF93CF93CDB7DEB78091A80214
:103100009091A902009729F0E091A802F091A902FC
:103110000995CF91DF91FF91EF91BF91AF919F9171
:103120008F917F916F915F914F913F912F910F9070
:103130000FBE0F901F901895DF93CF9300D000D053
:10314000CDB7DEB79C838B83A3E5B0E0E3E5F0E089
:1031500080818F7B8C93A3E5B0E0E3E5F0E0808194
:1031600088608C9380E06DE770E00E945D16A3E5B7
:10317000B0E0E3E5F0E08081887F83608C931A8281
:10318000198215C0E8E5F0E08081882F90E0817019
:1031900090700097B9F3A8E5B0E0E8E5F0E0808131
:1031A00081608C9389819A8101969A838983298190
:1031B0003A818B819C812817390720F30F900F905B
:1031C0000F900F90CF91DF910895DF93CF9300D0B0
:1031D000CDB7DEB79A838983E6E4F0E089819A81EE
:1031E000918380830F900F90CF91DF910895DF93AB
:1031F000CF9300D000D00F92CDB7DEB78B838B81F9
:10320000282F30E03D832C838C819D81009731F005
:103210002C813D812130310549F00EC0E2E5F0E01E
:103220008081882F90E09A83898306C0ECE4F0E0E7
:10323000808191819A83898389819A810F900F90EF
:103240000F900F900F90CF91DF910895DF93CF9360
:103250000F92CDB7DEB789838981813041F4AEE426
:10326000B0E0EEE4F0E0808180648C930AC0898154
:10327000823039F4AEE4B0E0EEE4F0E080818F7BA0
:103280008C930F90CF91DF910895DF93CF93CDB7BB
:10329000DEB7A9E5B0E0E9E5F0E0808180628C93DB
:1032A000CF91DF910895DF93CF93CDB7DEB7A9E536
:1032B000B0E0E9E5F0E080818F7D8C93CF91DF91E4
:1032C0000895DF93CF93CDB7DEB7E6E4F0E08081D9
:1032D0009181CF91DF9108950F931F93DF93CF9347
:1032E000CDB7DEB728970FB6F894DEBF0FBECDBFBF
:1032F0006A837B838C839D834E8319828E81282FE2
:1033000030E038872F838F8198858130910591F146
:10331000EF81F885E230F10534F42F8138852115ED
:10332000310571F081C08F8198858230910509F453
:103330003FC0EF81F885E330F10509F457C074C050
:1033400000E210E080E092E1AAE7B0E02A813B8150
:103350004C815D81BC01CD010E945D21DA01C90172
:103360004097A109B109B695A79597958795F8015A
:1033700080835CC000E210E080E092E1AAE7B0E068
:103380002A813B814C815D81BC01CD010E945D2180
:10339000DA01C9014097A109B109689412F8B695FC
:1033A000A795979587951694D1F7F80180833EC02D
:1033B00000E210E080E092E1AAE7B0E02A813B81E0
:1033C0004C815D81BC01CD010E945D21DA01C90102
:1033D0004097A109B109689414F8B695A7959795F7
:1033E00087951694D1F7F801808320C000E210E0A1
:1033F00080E092E1AAE7B0E02A813B814C815D81C7
:10340000BC01CD010E945D21DA01C9014097A109EB
:10341000B109689416F8B695A7959795879516946F
:10342000D1F7F801808302C081E089838E818430E6
:1034300058F4A1E2B0E0E1E2F0E08081982F9C7FB7
:103440008E81892B8C9302C081E0898389812896A3
:103450000FB6F894DEBF0FBECDBFCF91DF911F91A5
:103460000F910895DF93CF93CDB7DEB7A6E5B0E017
:10347000E6E5F0E0808184608C93CF91DF91089540
:10348000DF93CF93CDB7DEB7A6E5B0E0E6E5F0E099
:1034900080818B7F8C93CF91DF910895DF93CF93C1
:1034A000CDB7DEB7A6E5B0E0E6E5F0E0808181606B
:1034B0008C93CF91DF910895DF93CF93CDB7DEB793
:1034C000A6E5B0E0E6E5F0E080818E7F8C93CF91B9
:1034D000DF910895DF93CF9300D00F92CDB7DEB781
:1034E0009B838A8319828A819B81009739F08A8124
:1034F0009B819093B0028093AF0202C082E08983E7
:1035000089810F900F900F90CF91DF910895DF93F5
:10351000CF93CDB7DEB7A6E5B0E0E6E5F0E0808179
:1035200080628C93CF91DF910895DF93CF93CDB7D5
:10353000DEB7A6E5B0E0E6E5F0E0808180618C933F
:10354000CF91DF910895DF93CF93CDB7DEB7A6E596
:10355000B0E0E6E5F0E0808180648C93CF91DF916C
:103560000895DF93CF93CDB7DEB7A6E5B0E0E6E5EB
:10357000F0E080818F7B8C93CF91DF910895DF9372
:10358000CF93CDB7DEB7A2E2B0E0E2E2F0E0808117
:1035900081608C93CF91DF910895DF93CF93CDB766
:1035A000DEB7A2E2B0E0E2E2F0E080818E7F8C93B1
:1035B000CF91DF910895DF93CF930F92CDB7DEB710
:1035C0008983A2E2B0E0E2E2F0E08081282F21705E
:1035D0008981882F90E0880F991F822B8C930F9000
:1035E000CF91DF910895DF93CF93CDB7DEB7E1E2BE
:1035F000F0E08081887FCF91DF910895DF93CF93B2
:10360000CDB7DEB7E6E5F0E080818823DCF7CF9127
:10361000DF910895DF93CF93CDB7DEB7A6E5B0E095
:10362000E6E5F0E080818B7484688C93CF91DF9124
:103630000895DF93CF930F92CDB7DEB78983E3E28E
:10364000F0E0898180830F90CF91DF910895DF931F
:10365000CF93CDB7DEB7E3E2F0E08081CF91DF9189
:103660000895DF93CF9300D0CDB7DEB789836A8307
:103670000E94871A0E940A1B0E94FE1A0E94F31AD7
:103680008830E1F48981882F90E0880F991F0E948B
:10369000191B0E940A1B0E94FE1A0E94F31A88310D
:1036A00069F48A810E94191B0E940A1B0E94FE1A5B
:1036B0000E94F31A883211F40E94951A0F900F900D
:1036C000CF91DF910895DF93CF9300D000D00F9278
:1036D000CDB7DEB78B837D836C831A8219820E94FB
:1036E000871A0E940A1B0E94FE1A0E94F31A883051
:1036F00081F58B81882F90E0880F991F0E94191BFC
:103700000E940A1B0E94FE1A0E94F31A883109F5D2
:103710002C813D8189819A81F901E80FF91F80810F
:103720000E94191B0E940A1B0E94FE1A89819A811D
:1037300001969A8389832C813D8189819A81F9013F
:10374000E80FF91F8081882321F00E94F31A883244
:10375000F9F20F900F900F900F900F90CF91DF9193
:103760000895DF93CF930F92CDB7DEB70E940A1B67
:103770000E94FE1A0E94F31A8036A9F40E940A1BC6
:103780000E94FE1A0E94F31A803869F40E94271BD7
:1037900089830E940A1B0E94FE1A0E94F31A803A33
:1037A00011F40E940A1B89810F90CF91DF91089537
:1037B0000F93DF93CF93CDB7DEB72A970FB6F89468
:1037C000DEBF0FBECDBF6C837D838E839F83488712
:1037D00029870A871B828885843020F08885873076
:1037E00009F062C08985803239F08985803221F004
:1037F0008985803309F058C08A85882321F08A851D
:10380000883009F051C08C819D81AE81BF81880FC5
:10381000991FAA1FBB1F880F991FAA1FBB1F880FC4
:10382000991FAA1FBB1F880F991FAA1FBB1F9C01AE
:10383000AD0180E092E1AAE7B0E0BC01CD010E94B9
:103840005D21DA01C90101979A838983E9E2F0E0F9
:1038500089818083E0E4F0E089819A81892F99272A
:103860008F708083AAE2B0E0EAE2F0E08081982FD6
:103870009C7F88858470892B8C93A0E4B0E0E0E481
:10388000F0E080818174282F20688885882F90E05F
:1038900083709070880F991F922F982B8985982B91
:1038A0008A85892B8C9302C081E08B838B812A9639
:1038B0000FB6F894DEBF0FBECDBFCF91DF910F9151
:1038C0000895DF93CF93CDB7DEB7AAE2B0E0EAE286
:1038D000F0E0808188608C93CF91DF910895DF9331
:1038E000CF93CDB7DEB7AAE2B0E0EAE2F0E08081A4
:1038F000877F8C93CF91DF910895DF93CF93CDB7DE
:10390000DEB7AAE2B0E0EAE2F0E0808180618C9369
:10391000CF91DF910895DF93CF93CDB7DEB7AAE2C1
:10392000B0E0EAE2F0E080818F7E8C93CF91DF916E
:103930000895DF93CF93CDB7DEB7EBE2F0E080815F
:103940008295869586958370882F90E0817090701F
:10395000009799F3CF91DF910895DF93CF93CDB77F
:10396000DEB7EBE2F0E080818823DCF7CF91DF91D6
:103970000895DF93CF93CDB7DEB7EBE2F0E080811F
:10398000829586958770882F90E08170907000975F
:10399000A1F3CF91DF910895DF93CF930F92CDB72D
:1039A000DEB789830E94B91CECE2F0E08981808354
:1039B0000F90CF91DF910895DF93CF9300D000D087
:1039C00000D0CDB7DEB79E838D8319821A821B8209
:1039D0001C8215C089819A81AB81BC810196A11D91
:1039E000B11D89839A83AB83BC8329813A818D8100
:1039F0009E81FC01E20FF31F80810E94CC1C298173
:103A00003A818D819E81FC01E20FF31F8081882322
:103A100009F726960FB6F894DEBF0FBECDBFCF9143
:103A2000DF910895DF93CF93CDB7DEB70E94AD1C31
:103A3000ECE2F0E08081CF91DF9108950F931F9326
:103A4000DF93CF93CDB7DEB727970FB6F894DEBFDD
:103A50000FBECDBF9E838D836F8319821A821B8216
:103A60001C8229813A818D819E818C01020F131F56
:103A70000E94121DF801808316C089819A81AB8152
:103A8000BC810196A11DB11D89839A83AB83BC8340
:103A900029813A818D819E818C01020F131F0E9422
:103AA000121DF801808329813A818D819E81FC015C
:103AB000E20FF31F90818F819817F9F689819A811F
:103AC0002D813E81F901E80FF91F108227960FB66C
:103AD000F894DEBF0FBECDBFCF91DF911F910F9144
:103AE0000895DF93CF9300D0CDB7DEB78A831982D4
:103AF0008A818530B8F08A818830A0F4AAE2B0E0EB
:103B0000EAE2F0E08081482F8A81282F30E081E0CE
:103B100090E0022E02C0880F991F0A94E2F7842BCE
:103B20008C9302C081E0898389810F900F90CF919F
:103B3000DF910895DF93CF9300D0CDB7DEB78A83AE
:103B400019828A818530C0F08A818830A8F4AAE27F
:103B5000B0E0EAE2F0E08081482F8A81282F30E04F
:103B600081E090E0022E02C0880F991F0A94E2F7CC
:103B7000809584238C9302C081E0898389810F9092
:103B80000F90CF91DF910895DF93CF9300D000D0B5
:103B900000D0CDB7DEB79B838A836C8319828A817C
:103BA0009B81009769F18C81282F30E03E832D8323
:103BB0008D819E818630910591F02D813E81273047
:103BC000310531F08D819E818530910579F015C0E8
:103BD0008A819B819093B2028093B10213C08A8143
:103BE0009B819093B4028093B3020CC08A819B8125
:103BF0009093B6028093B50205C081E0898302C02C
:103C000082E08983898126960FB6F894DEBF0FBEC5
:103C1000CDBFCF91DF9108951F920F920FB60F92F3
:103C200011242F933F934F935F936F937F938F93C1
:103C30009F93AF93BF93EF93FF93DF93CF93CDB752
:103C4000DEB78091B1029091B202009729F0E09125
:103C5000B102F091B2020995CF91DF91FF91EF91FE
:103C6000BF91AF919F918F917F916F915F914F9194
:103C70003F912F910F900FBE0F901F9018951F929C
:103C80000F920FB60F9211242F933F934F935F9390
:103C90006F937F938F939F93AF93BF93EF93FF9314
:103CA000DF93CF93CDB7DEB78091B5029091B60286
:103CB000009729F0E091B502F091B6020995CF91F5
:103CC000DF91FF91EF91BF91AF919F918F917F9184
:103CD0006F915F914F913F912F910F900FBE0F9079
:103CE0001F9018951F920F920FB60F9211242F93C9
:103CF0003F934F935F936F937F938F939F93AF9374
:103D0000BF93EF93FF93DF93CF93CDB7DEB780914F
:103D1000B3029091B402009729F0E091B302F091C0
:103D2000B4020995CF91DF91FF91EF91BF91AF91CF
:103D30009F918F917F916F915F914F913F912F91C3
:103D40000F900FBE0F901F9018950F93DF93CF9396
:103D500000D0CDB7DEB782E06FE00E94580E82E05F
:103D600060EF0E94A10E84E067E041E00E94440FF2
:103D700084E065E041E00E94440F83E060E043E0BE
:103D80000E94440F83E060E043E00E94440F81E022
:103D900062E04EE022E00E94211480E29EE40E9454
:103DA000E5180E943C0881E061E00E94870C0E94B7
:103DB000ED0C60E875E280E090E043E020E000E098
:103DC0000E94D81B0E94611C0E94ED0980E690E0D1
:103DD0000E94C10884EC99E00E949C1881E08A83CB
:103DE0000E945E1F8A838A81813009F04EC083E57C
:103DF0000E94CC1C0E94092181E00E94960886E660
:103E000090E00E94C10881E060E00E947E0985E7A1
:103E100090E00E94C1080E94A30B898303C00E9406
:103E2000A30B898389818F3FD1F38981823011F47B
:103E30000E94E21F81E00E94960885E890E00E94BF
:103E4000C10881E060E00E947E0982E990E00E9462
:103E5000C1080E94A30B898303C00E94A30B89831E
:103E600089818F3FD1F38981813031F48DE40E94C3
:103E7000CC1C0E946820DECF89818230D9F681E493
:103E80000E94CC1C0E949E20D5CF81E00E94960803
:103E900083EA90E00E94C10881E060E00E947E0910
:103EA00082EB90E00E94C1080E94332180E090E004
:103EB0000F900F90CF91DF910F910895DF93CF93E3
:103EC00000D000D00F92CDB7DEB71B821A821982C4
:103ED0001C826BC081E00E94960881EC90E00E94F9
:103EE000C1081B821A821DC00E94A30B8D838D8185
:103EF0008F3FB9F08AE20E946B088A81882F90E098
:103F00009C01220F331FC901880F991F880F991F29
:103F1000820F931F982F8D81890F8A838B818F5FEA
:103F20008B838B81833000F382E290E00E94C50A8C
:103F30008D838D81882311F48BE78D839D818A8108
:103F4000981771F481E00E9496088DEC90E00E9431
:103F5000C10881E0898384EF91E00E949C1829C008
:103F600081E00E9496088BED90E00E94C10881E0FC
:103F700060E00E947E098C81282F30E082E090E092
:103F8000821B930BAA2797FDA095BA2FBC01CD01E8
:103F90000E94F50886EE90E00E94C1088CED95E045
:103FA0000E949C188C818F5F8C838C81833008F4F5
:103FB00091CF89810F900F900F900F900F90CF911C
:103FC000DF910895DF93CF9300D000D0CDB7DEB757
:103FD0001B821A82198281E00E9496088FEE90E07F
:103FE0000E94C10881E060E00E947E091B821A8263
:103FF0001DC00E94A30B8C838C818F3FB9F08AE295
:104000000E946B088A81882F90E09C01220F331F49
:10401000C901880F991F880F991F820F931F982F2E
:104020008C81890F8A838B818F5F8B838B81833017
:1040300000F381E00E9496088FEF90E00E94C10893
:1040400081E060E00E947E091B8219821DC00E94EF
:10405000A30B8C838C818F3FB9F08AE20E946B089E
:104060008981882F90E09C01220F331FC901880F9E
:10407000991F880F991F820F931F982F8C81890F8A
:1040800089838B818F5F8B838B81833000F3998150
:104090008A81981771F482E290E06A810E94020A94
:1040A0008DE091E00E94C10888EE93E00E949C1888
:1040B00008C08EE191E00E94C10888EE93E00E9462
:1040C0009C180F900F900F900F90CF91DF91089553
:1040D000DF93CF930F92CDB7DEB78FEF898381E067
:1040E0000E9496088CE291E00E94C10881E060E0A5
:1040F0000E947E098AE391E00E94C10803C00E94E9
:10410000A30B898389818F3FD1F389818F3F29F365
:104110008981813031F486E40E94CC1C0E94BF204A
:10412000DCCF89818230C9F289818330B1F682E4A3
:104130000E94CC1C0F90CF91DF910895DF93CF9315
:104140000F92CDB7DEB781E00E94960888E491E037
:104150000E94C10881E060E00E947E0987E591E04D
:104160000E94C1080E94A30B898389818330D1F703
:1041700082E40E94CC1C0F90CF91DF910895DF93D1
:10418000CF930F92CDB7DEB781E00E94960884E608
:1041900091E00E94C10881E060E00E947E098AE30C
:1041A00091E00E94C1080E94A30B898389818F3FFF
:1041B000D1F38981813021F48FE40E94CC1CF3CFAC
:1041C0008981823021F486E40E94CC1CECCF898165
:1041D000833049F782E40E94CC1C0F90CF91DF918D
:1041E0000895DF93CF93CDB7DEB784E067E041E079
:1041F0000E943B11CF91DF910895DF93CF93CDB70C
:10420000DEB784E067E040E00E943B11CF91DF9190
:104210000895DF93CF9300D0CDB7DEB781E00E9441
:10422000EB158CED95E09A8389830FC029813A8143
:1042300081E0B9010E945D1685E090E00E949C1823
:1042400089819A8101969A83898389819A8127E05D
:10425000813D920758F381E00E9428160F900F903D
:10426000CF91DF910895DF93CF9300D0CDB7DEB724
:1042700081E00E94EB158CED95E09A8389830FC055
:1042800029813A8181E0B9010E945D1685E090E0C4
:104290000E949C1889819A8101979A8389838981D8
:1042A0009A8123E0883E920758F781E00E94281601
:1042B0000F900F90CF91DF910895A1E21A2EAA1BC3
:1042C000BB1BFD010DC0AA1FBB1FEE1FFF1FA217C6
:1042D000B307E407F50720F0A21BB30BE40BF50BC3
:1042E000661F771F881F991F1A9469F7609570954C
:1042F000809590959B01AC01BD01CF01089597FB7E
:10430000092E05260ED057FD04D0D7DF0AD0001C99
:1043100038F450954095309521953F4F4F4F5F4F62
:104320000895F6F790958095709561957F4F8F4F22
:104330009F4F08952F923F924F925F926F927F927C
:104340008F929F92AF92BF92CF92DF92EF92FF92A5
:104350000F931F93CF93DF93CDB7DEB7CA1BDB0B51
:104360000FB6F894DEBF0FBECDBF09942A883988F6
:1043700048885F846E847D848C849B84AA84B984FD
:10438000C884DF80EE80FD800C811B81AA81B98109
:10439000CE0FD11D0FB6F894DEBF0FBECDBFED011D
:0643A0000895F894FFCF20
:1043A60048454C4C4F00312D436F6E74726F6C2034
:1043B600486F6D6500322D456469742050617373D2
:1043C600776F72640063686F6F7365206D6F6465E5
:1043D6003A00312D204D616E75616C20322D41758C
:1043E600746F0054686569662043616C6C203931CE
:1043F6003100446F6F7220697320636C6F7365645C
:1044060000456E74657220506173733A0057656C8F
:10441600636F6D652041686D65640057726F6E67E6
:104426002070617373004D6F726520747279004558
:104436006E746572204E657720506173733A00433F
:104446006F6E6669726D20506173733A00506173C6
:1044560073776F7264204368616E676564006E6F80
:10446600742073616D65207061737300312D204374
:104476006F6E746F6C2046616E00332D20746F2052
:10448600676F206261636B004175746F6D6174695B
:1044960063204D6F646500332D746F20676F206253
:1044A60061636B00312D204F4E20322D4F46460062
:1044B60000000000000000000001020203030303E5
:1044C600040404040404040405050505050505059E
:1044D600050505050505050506060606060606067E
:1044E6000606060606060606060606060606060666
:1044F600060606060606060607070707070707074E
:104506000707070707070707070707070707070735
:104516000707070707070707070707070707070725
:104526000707070707070707070707070707070715
:1045360007070707070707070808080808080808FD
:1045460008080808080808080808080808080808E5
:1045560008080808080808080808080808080808D5
:1045660008080808080808080808080808080808C5
:1045760008080808080808080808080808080808B5
:1045860008080808080808080808080808080808A5
:104596000808080808080808080808080808080895
:1045A6000808080808080808080808080808080885
:1045B60008080808080808083134372B3235382D22
:1045C6003336393D2A302344FF003D2B0102032DAB
:1045D600040506780708092F0405060700010203EB
:0245E6000200D1
:00000001FF
